{
  "contractName": "DataContract",
  "abi": [
    {
      "constant": true,
      "inputs": [],
      "name": "priceOfData",
      "outputs": [
        {
          "name": "",
          "type": "uint256"
        }
      ],
      "payable": false,
      "stateMutability": "view",
      "type": "function"
    },
    {
      "constant": true,
      "inputs": [
        {
          "name": "",
          "type": "address"
        }
      ],
      "name": "backers",
      "outputs": [
        {
          "name": "",
          "type": "bool"
        }
      ],
      "payable": false,
      "stateMutability": "view",
      "type": "function"
    },
    {
      "constant": true,
      "inputs": [],
      "name": "buyersCount",
      "outputs": [
        {
          "name": "",
          "type": "uint256"
        }
      ],
      "payable": false,
      "stateMutability": "view",
      "type": "function"
    },
    {
      "constant": true,
      "inputs": [],
      "name": "dataSeller",
      "outputs": [
        {
          "name": "",
          "type": "address"
        }
      ],
      "payable": false,
      "stateMutability": "view",
      "type": "function"
    },
    {
      "inputs": [
        {
          "name": "price",
          "type": "uint256"
        },
        {
          "name": "creator",
          "type": "address"
        }
      ],
      "payable": false,
      "stateMutability": "nonpayable",
      "type": "constructor"
    },
    {
      "constant": false,
      "inputs": [
        {
          "name": "newPrice",
          "type": "uint256"
        }
      ],
      "name": "changePrice",
      "outputs": [],
      "payable": false,
      "stateMutability": "nonpayable",
      "type": "function"
    },
    {
      "constant": false,
      "inputs": [],
      "name": "createBuyRequest",
      "outputs": [],
      "payable": true,
      "stateMutability": "payable",
      "type": "function"
    }
  ],
  "bytecode": "0x608060405234801561001057600080fd5b506040516040806103b08339810180604052810190808051906020019092919080519060200190929190505050806000806101000a81548173ffffffffffffffffffffffffffffffffffffffff021916908373ffffffffffffffffffffffffffffffffffffffff16021790555081600281905550505061031b806100956000396000f300608060405260043610610078576000357c0100000000000000000000000000000000000000000000000000000000900463ffffffff1680632f8d28fa1461007d578063a2b40d19146100a8578063b85dfb80146100d5578063ba49a08c14610130578063c2efcff51461015b578063d1607662146101b2575b600080fd5b34801561008957600080fd5b506100926101bc565b6040518082815260200191505060405180910390f35b3480156100b457600080fd5b506100d3600480360381019080803590602001909291905050506101c2565b005b3480156100e157600080fd5b50610116600480360381019080803573ffffffffffffffffffffffffffffffffffffffff169060200190929190505050610227565b604051808215151515815260200191505060405180910390f35b34801561013c57600080fd5b50610145610247565b6040518082815260200191505060405180910390f35b34801561016757600080fd5b5061017061024d565b604051808273ffffffffffffffffffffffffffffffffffffffff1673ffffffffffffffffffffffffffffffffffffffff16815260200191505060405180910390f35b6101ba610272565b005b60025481565b6000809054906101000a900473ffffffffffffffffffffffffffffffffffffffff1673ffffffffffffffffffffffffffffffffffffffff163373ffffffffffffffffffffffffffffffffffffffff1614151561021d57600080fd5b8060028190555050565b60036020528060005260406000206000915054906101000a900460ff1681565b60015481565b6000809054906101000a900473ffffffffffffffffffffffffffffffffffffffff1681565b600254341015151561028357600080fd5b6001600360003373ffffffffffffffffffffffffffffffffffffffff1673ffffffffffffffffffffffffffffffffffffffff16815260200190815260200160002060006101000a81548160ff0219169083151502179055506001600081548092919060010191905055505600a165627a7a72305820c57ed6ee9b9c9559232d32df90c85e76a42c84d33bd80aff706393ef10424a800029",
  "source": "pragma solidity ^0.4.17;\r\n//to test this code go to : https://remix.ethereum.org/#optimize=false&version=soljson-v0.4.24+commit.e67f0147.js\r\n//past the code and go to \"run\", chose \" enviroment : javascript VM\".\r\n//\r\n\r\ncontract DataContractCreator {\r\n    address[]public deployedDataContracts; //alle gemaakte adressen opslaan.\r\n\r\n    //maakt persoonlijke contracten per gebruiker.\r\n    function createDataContract(uint price) public {\r\n        address newDataContract = new DataContract(price, msg.sender);\r\n        deployedDataContracts.push(newDataContract);\r\n    }\r\n\r\n    function getDeployedContracts() public view returns(address[])  {\r\n      return deployedDataContracts;\r\n    }\r\n}\r\n\r\n\r\ncontract DataContract {\r\n\r\n    //contract variables.\r\n    address public dataSeller; //variable type address - all public variables have a getter ( automated)\r\n    uint public buyersCount;\r\n    uint public priceOfData;\r\n    mapping(address => bool) public backers; //mapps ipv array -> veel goedkoper.\r\n\r\n\r\n    constructor(uint price, address creator) public {\r\n        dataSeller = creator; //omdat dit contract door een ander contract wordt gemaakt. Creator meegeven\r\n        priceOfData = price; //verkoopprijs\r\n    }\r\n\r\n    modifier restricted(){\r\n        require(msg.sender == dataSeller);\r\n        _;\r\n    }\r\n\r\n    //get users address -> zodat deze persoon de prijs kan veranderen.\r\n    function changePrice(uint newPrice) public restricted{\r\n        priceOfData = newPrice; //prijs nog aanpassen naar ether ipv WEI.\r\n    }\r\n\r\n    function createBuyRequest() public payable {\r\n        require(msg.value >= priceOfData); //voert deze functie enkels als het voldoet aan de require\r\n\r\n        backers[msg.sender] = true;\r\n        buyersCount++;\r\n    }\r\n\r\n}\r\n",
  "sourcePath": "D:\\Users\\Robinator\\Documents\\GitHub\\my-issue-repo\\Solidity\\contracts\\DataContractCreator.sol",
  "compiler": {
    "name": "solc",
    "version": "0.4.24+commit.e67f0147.Emscripten.clang"
  },
  "schemaVersion": "2.0.1",
  "updatedAt": "2018-11-26T18:48:13.806Z"
}